:1005CC00E4F50875B0FF75A0FF7590FF7580FF12FC
:1005DC0007F2120B1E120BA8D2AF7F0A1209128F50
:1005EC000E8E0D8D0C8C0B7F051209128F0E8E0D3D
:1005FC008D0C8C0BE47B64FAF9F812047CE4120287
:10060C00C4E4FBFAF9783F12002D1203028E098F15
:10061C000AC293120ABEE53C30E10F533CFDAF0A0F
:10062C00AE09120AE27F0512000EE53C30E20E53D1
:10063C003CFB7B007A0079161209C7D2937B007AB7
:08064C0000791D120953809F83
:10079D002057656C636F6D6520546F205573652010
:1007AD0000456C656374726F6E6963205363616C91
:1007BD00650076616C75653A202020202020202070
:1007CD00202000202020202020202020202020203C
:1007DD00202020003F065B4F666D7D077F6F777C85
:0507ED00395E79710086
:100B45007580FFC2A6D2A5D2A7AF80C2A7EF20E7C6
:010B5500F6A9
:010B5600227C
:100A2600C2A58E807F017E00120A37D2A77F057E7F
:010A360000BF
:100A3700D3EF9400EE9400400F7DC77C01DCFEDD10
:080A4700FAEF1F70EB1E80E8BE
:010A4F002284
:0F0B7B00AE07120B45C2A7C2A6120A26C2A722B6
:0F0B8A00AE07120B45C2A7D2A6120A26C2A72297
:1007F2007F38120B7B7F0C120B7B7F06120B7B7FE9
:1008020001120B7B7F80120B7B7BFF7A07799D1293
:100812000A507FC0120B7B7BFF7A0779AE120A5017
:100822007F6412000E7F80120B7B7BFF7A0779BFF9
:10083200120A507FC0120B7B7BFF7A0779D0020A23
:010842005065
:100B570053050153070FED60034307404307800226
:020B67000B7B06
:100A50008B0F8A108911AB0FAA10A91112038360A2
:100A6000130511E5117002051014F9120383FF122A
:050A70000B8A80E22268
:06099200013E00013D00E2
:100B1E00438920439850438780758DF3758BF3D2AC
:040B2E00ACD28E2295
:03002300020B9934
:0F0B9900309806C298753E0132C299753D0132FF
:0A0BC2008F99E53D60FCE4F53D224B
:100A75008B138A148915AB13AA14A9151203836065
:100A8500130515E5157002051414F9120383FF12F9
:050A95000BC280E2220B
:0F09980001238004280000000004243F80000099
:03000300000022D8
:100739007A01D2A1120003120003C2A07F007E0039
:100749007D007C0030A106EBC3943240F712000310
:10075900E4FBD2A00000780112052DC2A030A10D42
:10076900EF2401FFE43EFEE43DFDE43CFC0BBB1835
:10077900E1E523B440027A03E523B420027A02EAD0
:10078900D39400400ED2A0ED6480FD120003C2A0F4
:030799001A80ECD7
:01079C00223A
:020912008F0F45
:10091400E4F513F512F511F510A90FE9D39400408D
:100924001A120739E5132FF513E5123EF512E511F6
:100934003DF511E5103CF5101980E0AF0FAB07E46D
:0E094400FAF9F8AF13AE12AD11AC1012047C2C
:010952002282
:1008D0008E3F8F40AF05120912C3EF952BFFEE95A7
:1008E0002AFEED9529FDEC9528FCE41202C4C00413
:1008F000C005C006C007AC3FAD40E41202C9D0033A
:10090000D002D001D0001202278F278E268D258C91
:0209100024229F
:100A9A00120912C3EF952BFFEE952AFEED9529FD5B
:100AAA00EC9528FCE41202C4AB27AA26A925A8249F
:030ABA0012011E08
:010ABD002216
:0C0BB6001209128F2B8E2A8D298C282208
:100B0300AF2BAE2AAD29AC2812050EEC1202C4ABF2
:0B0B130027AA26A925A82412011E22F3
:030006008F232223
:100B3200203E3E205468652056616C7565206973BD
:030B42003A200056
:1009A7000616000000000000061D200000000000E1
:0309B700011C0020
:10084300753405E4F538F537F536F53575340512A5
:100853000739E5382FF538E5373EF537E5363DF509
:1008630036E5353CF5351534E534D3940050E0AF27
:1008730038AE37AD36AC35E47B05FAF9F812047CB3
:080883008F388E378D368C355D
:01088B00224A
:0806D0008F2F8E2E8D2D8C2C36
:1006D800E4F533F532F531F5307F05120912C3EF31
:1006E800952FF533EE952EF532ED952DF531EC95E8
:1006F8002CF530E4FFFEFDFCAB33AA32A931A8305B
:10070800C312051C5009E4F533F532F531F530E430
:100718007B64FAF9F8AF33AE32AD31AC3012047CF9
:10072800E41202C4E4FBFAF9783F12002D12030226
:01073800229E
:100654008E108F11E4FCFD7BA07A867901F81208D4
:100664008CE47B0AFAF9F812088CAF038F16AE10EB
:10067400AF117C277D101203EB7C007D0A1203EB83
:100684008D17AE10AF117C037DE81203EB7C007D67
:100694000A1203EB8D18AE10AF117C007D641203B7
:1006A400EB7C007D0A1203EB8D19AE10AF117C00B8
:1006B4007D0A1203EB7C007D0A1203EB8D1AAE1047
:0C06C400AF117C007D0A1203EB8D1B229D
:100AE200E4F50F1206547FC0120B7B7416250FF823
:100AF200E62430FF120B8A050FE50FC3940640EB84
:010B020022D0
:0609C7008B0F8A1089115C
:1009CD00E4F5127BFF7A0B7932120A75AB0FAA1080
:1009DD00A911AF1205128F8275830012039C24306A
:0B09ED00FF120BC2E512C3940640E1AC
:0109F80022DC
:100953008B0F8A108911E53E6034E53D7030F53E1A
:10096300851C82F583E5991203C97D017F0A120B69
:1009730057AB0FAA10A911851C8275830012039C23
:0F098300FF120B8A051CE51CB40603E4F51C22C9
:0C09BA00013C00013A7D013914013BE8CA
:0E0BA800438901758CD8758AEFD2A9D28C22B0
:03000B000209F9EE
:1009F900C0E0758CD8758AEF153B1539E53A700654
:100A0900753A7D433C01E5397006753914433C025A
:0D0A1900E53B7006753BE8433C04D0E0323D
:10000E007D64EF600F1DED60087E0A1EEE60F680C7
:04001E00FA1F80EE57
:0100220022BB
:100B6900EFD39400400B7EC77D01DDFEDEFA1F80C6
:010B7900EF8C
:010B7A002258
:100ABE0030B20320B31D7F0A120B6930B20320B38C
:100ACE001220B204B291800520B302B29230B2FD70
:040ADE0030B3FD2212
:1000260002036EE86480F8E933E83360110460F097
:10003600ED33EC337009E8FCE9FDEAFEEBFF220440
:1000460060DED3EB9FEA9EE99DE8C2E78CF0C2F73B
:1000560095F0400CE8CCF8E9CDF9EACEFAEBCFFB07
:1000660012033985D0F05804700320D5B3E8047024
:10007600075002B2D502037892D5EC0460F7E4CCBF
:10008600C0E0C398F8603B94186008400DD0E0FBD0
:10009600020350E4FBFAC9FC8028E830E406E4C910
:1000A600FBE4CAFCE830E305E4C9CACBFCE8540724
:1000B6006010F8C3E913F9EA13FAEB13FBEC13FC2F
:1000C600D8F130F52FC3E49CFCEF9BFFEE9AFEEDD2
:1000D60099FDD0E0FBEF4E4D4C701222DB0302037C
:1000E60075EC2CFCEF33FFEE33FEED33FDED30E720
:1000F600EB020350EF2BFFEE3AFEED39FDD0E0FBAD
:1001060050130BBB0003020378ED13FDEE13FEEF55
:0801160013FFEC13FC0203507F
:10011E00EC4D6011E8497017ED33EC3304600DE4DB
:10012E00FCFFFEFD22E933E8330470F802036E1281
:10013E00033958046009E4CC248150062850090282
:10014E000378284003020375C0E0EB4A7044B9807F
:10015E0006D0E0FB020364EF4E701CBD8008EBFF7F
:10016E00EAFEE9FD80EBE98DF0A4FEE5F002020760
:10017E00E9CDF9EAFEEBFFEF89F0A4FCE5F0CE89BC
:10018E00F0A42EFFE435F0CD89F0A42DFEE435F079
:10019E008067EF4E7005BD80D780C3EF8BF0A4ACA7
:1001AE00F0EE8BF0A42CFCE435F0F8EF8AF0A42CE2
:1001BE00E5F038FCE433CB8DF0A42CFCE5F03BF8F5
:1001CE00EE8AF0A42CFCE5F038F8E433CF89F0A4E5
:1001DE002CFCE5F038CF3400CE89F0A42FFFE5F0EB
:1001EE003EFEE433C98DF0A42EFEE5F039CD8AF043
:1001FE00A42FFFE5F03EFEE43DFD33D0E0FB5007BB
:10020E000BBB000F020378EC2CFCEF33FFEE33FE3A
:06021E00ED33FD02035068
:10022400020378EC5D046005E85904700302036E70
:10023400120339580460F6EC4860F2EC7004FDFED9
:10024400FF22C860DB2481C85009C39860025006AD
:100254000203759850CAF582E9294B4A7005AB82AE
:1002640002036475F0007C1A7880C3EF9BEE9AED6C
:1002740099400DC3EF9BFFEE9AFEED99FDE842F025
:10028400DC23ACF0D0E0FFD0E0FED0E0FDAB822078
:10029400E7101BEB60BAEC2CFCEF33FFEE33FEED02
:1002A40033FD020350E803F830E705C0F075F000B1
:1002B400EF2FFFEE33FEED33FD40B830E7C280AAE6
:1002C40075F020800E75F010800575F0087D007EB5
:1002D400007F003392D530D50312050EEC33401065
:1002E400EF33FFEE33FEED33FDEC33FCD5F0ED22BE
:0E02F400E5F0247EA2D513CC92E7CDCEFF22FA
:10030200EDD2E7CD33EC3392D524814006E4FFFEF3
:10031200FDFC22FCE4CFCECDCC24E0501174FF8052
:10032200EDC3CC13CCCD13CDCE13CECF13CF0470EF
:07033200F030D5DE02050EDC
:10033900E9D2E7C933E833F892D5EDD2E7CD33EC0A
:0703490033FC5002B2D52283
:10035000EC30E7100FBF000C0EBE00080DBD00040E
:100360000BEB6014A2D5EB13FCED92E7FD2274FFBA
:10037000FCFDFEFF22E480F8A2D574FF13FC7D8013
:03038000E480EF27
:03000000020540B6
:0C054000787FE4F6D8FD75814002058745
:10038300BB010689828A83E0225002E722BBFE0278
:09039300E32289828A83E49322AB
:10039C00BB010CE58229F582E5833AF583E0225016
:1003AC0006E92582F8E622BBFE06E92582F8E22260
:0D03BC00E58229F582E5833AF583E493227A
:1003C900F8BB010DE58229F582E5833AF583E8F06A
:1003D900225006E92582C8F622BBFE05E92582C816
:0203E900F222FE
:1003EB00BC000BBE0029EF8DF084FFADF022E4CCF6
:1003FB00F875F008EF2FFFEE33FEEC33FCEE9DECBF
:10040B00984005FCEE9DFE0FD5F0E9E4CEFD22ED04
:10041B00F8F5F0EE8420D21CFEADF075F008EF2F4E
:10042B00FFED33FD4007985006D5F0F222C398FD3F
:05043B000FD5F0EA22DC
:1004400075F008758200EF2FFFEE33FECD33CDCC73
:1004500033CCC58233C5829BED9AEC99E5829840F6
:100460000CF582EE9BFEED9AFDEC99FC0FD5F0D6D3
:10047000E4CEFBE4CDFAE4CCF9A88222B800C1B9FD
:100480000059BA002DEC8BF084CFCECDFCE5F0CB3B
:10049000F97818EF2FFFEE33FEED33FDEC33FCEB74
:1004A00033FB10D703994004EB99FB0FD8E5E4F92F
:1004B000FA227818EF2FFFEE33FEED33FDEC33FC1C
:1004C000C933C910D7059BE99A4007EC9BFCE99A10
:1004D000F90FD8E0E4C9FAE4CCFB2275F010EF2F55
:1004E000FFEE33FEED33FDCC33CCC833C810D70755
:1004F0009BEC9AE899400AED9BFDEC9AFCE899F890
:0E0500000FD5F0DAE4CDFBE4CCFAE4C8F92222
:10088C00C2D5E830E70FB2D5E4C39BFBE49AFAE497
:10089C0099F9E498F8EC30E717B2D51208C21204B3
:1008AC007CE4C39BFBE49AFAE499F9E498F880039E
:1008BC0012047C30D50DE4C39FFFE49EFEE49DFD45
:0408CC00E49CFC228A
:0E050E00C3E49FFFE49EFEE49DFDE49CFC22FE
:10051C00EB9FF5F0EA9E42F0E99D42F0E89C45F035
:01052C0022AC
:10052D00E8600FEFC333FFEE33FEED33FDEC33FC2C
:03053D00D8F122D0
:10054C000205CCE493A3F8E493A34003F68001F2F4
:10055C0008DFF48029E493A3F85407240CC8C333B0
:10056C00C4540F4420C8834004F456800146F6DF7F
:10057C00E4800B0102040810204080900992E47E74
:10058C00019360BCA3FF543F30E509541FFEE49374
:10059C00A360010ECF54C025E060A840B8E493A33B
:1005AC00FAE493A3F8E493A3C8C582C8CAC583CA66
:1005BC00F0A3C8C582C8CAC583CADFE9DEE780BE1E
:0109C6000030
:00000001FF
